:020000040800F2
:10000000503700204D0200087102000873020008FA
:10001000770200087B0200087F0200080000000051
:100020000000000000000000000000008502000841
:10003000830200080000000087020008890200080F
:100040008B0200088D0200088F0200089102000850
:10005000930200089502000897020008FF020008BA
:10006000B9030008BB030008BD030008BF03000874
:10007000C1030008C3030008C5030008C703000844
:10008000C9030008CB030008CD030008CF03000814
:10009000D1030008D3030008D5030008D7030008E4
:1000A000D9030008DB030008DD030008DF030008B4
:1000B000E1030008E3030008E5030008E703000884
:1000C000E9030008EB030008ED030008EF03000854
:1000D000F1030008F3030008F5030008F703000824
:1000E000F9030008FB030008FD030008FF030008F4
:1000F00001040008030400080504000807040008C0
:10010000090400080B0400080D0400080F0400088F
:10011000110400081304000815040008170400085F
:10012000190400081B0400081D0400081F0400082F
:1001300000F002F800F03CF80AA090E8000C8244BD
:100140008344AAF10107DA4501D100F031F8AFF29A
:10015000090EBAE80F0013F0010F18BFFB1A43F0A5
:1001600001031847A01A0000C01A0000103A24BF6B
:1001700078C878C1FAD8520724BF30C830C144BF0C
:1001800004680C607047000000230024002500264E
:10019000103A28BF78C1FBD8520728BF30C148BFEA
:1001A0000B6070471FB501F01CFD1FBD10B510BDE1
:1001B00001F0DBFC1146FFF7F5FF01F0CFFC01F089
:1001C000F9FC03B4FFF7F2FF03BC01F003FD0000EC
:1001D00030BF704720BF704740BF7047BFF36F8F7D
:1001E0007047BFF34F8F7047BFF35F8F704701DFDA
:1001F0007047EFF31480704780F31488BFF36F8F5C
:100200007047EFF30980704780F309887047EFF378
:100210000880704780F30888704762B6704772B6EE
:100220007047EFF31080704771B6704761B6704742
:10023000EFF31380704780F311887047EFF312805B
:10024000704740BA704700BA704700000348004743
:1002500003480449044A054B704700003101000877
:10026000502F002050370020503300205033002002
:10027000704700BFFEE700BFFEE700BFFEE700BF1C
:10028000FEE7704770477047704770477047704788
:1002900070477047704710B5012000F048FA0128F8
:1002A0002CD100F055FA5E480078C82826DA0024E0
:1002B0000CE05C4801F0BFFB59490978C1EB011122
:1002C000594A02EB81010855601CC4B2132CF0DBC3
:1002D00000240CE0534801F0AEFB51490978C1EB12
:1002E0000111514A02EB81010855601CC4B23C2C3B
:1002F000F0DB4B480078401C4949087010BD70B5D0
:100300000025022000F013FA012854D1022000F049
:100310001FFA00204249087000F066F900214348A6
:1003200001F0EEF900BF8021404801F040FA0028BA
:10033000F9D0FF213D4801F0E3F900BF80213B489F
:1003400001F035FA0028F9D00121384801F0D8F938
:1003500000BF8021354801F02AFA0028F9D0002199
:10036000324801F0CDF900BF8021304801F01FFA7A
:100370000028F9D019E0002411E0C5EB05102A4A45
:1003800002EB8000015D294801F0BAF900BF80212D
:10039000264801F00CFA0028F9D0601C84B22448E9
:1003A00000788442E9DB681C85B2224800788542E7
:1003B000E1DB00F05AF870BD704770477047704736
:1003C0007047704770477047704770477047704775
:1003D0007047704770477047704770477047704765
:1003E0007047704770477047704770477047704755
:1003F0007047704770477047704770477047704745
:100400007047704770477047704770477047704734
:100410007047704770477047704770477047704724
:1004200002000020001801400C00002000380140AC
:1004300001000020000000201FB54FF4E1300090C3
:100440000020ADF80400ADF80600ADF80800ADF8E6
:100450000C000C20ADF80A0069466B4801F077F8F3
:100460000121694801F0E1F81FBD1CB500F0D4F886
:100470000320009000208DF804000C208DF805006A
:1004800001208DF80600684600F0D5F81CBD08B5BF
:100490004FF6FF70ADF8000003208DF80200042035
:1004A0008DF803006946594801F02CFA4FF40070AA
:1004B000ADF8000003208DF8020018208DF803002D
:1004C0006946534801F01EFA4FF48060ADF8000011
:1004D00004208DF8030069464D4801F013FA03200B
:1004E000ADF800008DF8020028208DF80300694661
:1004F000484801F007FA0021022001F006FB012123
:10050000022001F002FB08BD08B500F0CFFB00217E
:100510004FF0006000F0DEFC4FF4E06000F011FCF2
:1005200006208DF8000000208DF801008DF80200F3
:1005300001208DF80300684600F008FC07208DF8C4
:10054000000000208DF8010001208DF802006846AF
:1005500000F0FCFB08BD10B500F0D4FD4FF4803076
:1005600000F0EFFD00BF312000F00EFE0028FAD0B1
:10057000102000F017F9022000F0FEF8002000F033
:1005800068FE002000F077FE4FF4806000F06AFE05
:100590004FF4E0114FF4803000F03EFE012000F0F7
:1005A00047FE00BF392000F0EFFD0028FAD00220FE
:1005B00000F041FE00BF00F047FE0828FBD10121FA
:1005C000552000F00CFF0121880300F008FF10BD4A
:1005D00010B5FFF7C0FFFFF797FFFFF758FFFFF7D2
:1005E00044FFFFF729FF10BD1CB500208DF8060061
:1005F000684600F020F81CBD1CB501208DF80600EF
:10060000684600F018F81CBD003801400018014091
:10061000000801400010014000204F4908604F4988
:10062000C1F804044E49086001F1040108604D4816
:100630004D49086070478179F1B34849D1F80014F9
:1006400002689143454AC2F800141146D1F80414D7
:1006500002689143454A11600179404A1144D1F83A
:100660000014026841EA020102793C4B1A44C2F8C4
:1006700000141946D1F80814026821EA02011A464A
:10068000C2F808141146D1F80C14026821EA0201DC
:10069000374A11604179102912D11946D1F808144E
:1006A000026811431A46C2F808141146D1F80C1416
:1006B000026811431A4600E00FE0C2F80C1418E07B
:1006C0004179264A1144D1F8001402681143427955
:1006D000224B1A44C2F800140BE001791F4A11445E
:1006E000D1F800140268914302791C4B1A44C2F8F5
:1006F000001470470021016001710C21417100213B
:10070000817170471B49096841EA0001134AC2F828
:100710001014704701460020134A12680A4201D0A3
:10072000012000E0002070470F4908607047014633
:1007300000200022084B1B6803EA0102074BD3F894
:1007400014340B4202D00AB1012000E000207047AF
:1007500005490860704700000004014000000140A6
:1007600008040140FFFF0700140401400404014095
:100770000C04014010040140FA49096801F03801F5
:10078000F84A116011460968014311607047F54944
:10079000096821F00801F34A116011460968014314
:1007A00011607047EF49096821F01001ED4A1160AE
:1007B00011460968014311607047EB48E9494860F8
:1007C000EA4848607047E748006940F08000E54922
:1007D000086170470420E349C96801F0010101295B
:1007E00001D101200EE0DF49C96811F0040F01D0EA
:1007F000022007E0DB49C96811F0100F01D0032087
:1008000000E0042070470020FF2000E0401E002888
:10081000FCD1704770B504460425FFF7DBFF0546A1
:1008200005E0FFF7F0FFFFF7D5FF0546641E012D39
:1008300001D1002CF5D104B90525284670BD70B54D
:100840000546042440F6FF70FFF7E4FF0446042C3D
:1008500019D1C448006940F00200C2490861084645
:100860004561006940F04000086140F6FF70FFF705
:10087000D1FF0446012C06D0BA48006941F6FD714B
:100880000840B8490861204670BD10B5042440F600
:10089000FF70FFF7BFFF0446042C18D1B148006970
:1008A00040F00400AF4908610846006940F040008C
:1008B000086140F6FF70FFF7ADFF0446012C06D03B
:1008C000A848006941F6FB710840A6490861204626
:1008D00010BD10B5042440F6FF70FFF79BFF0446DF
:1008E000042C3CD1A0489F498860A04888600846F5
:1008F000006940F0200008610846006940F04000AF
:10090000086140F6FF70FFF785FF0446042C1DD1F7
:100910009448006941F6DF71084092490861084631
:10092000006940F010000861A520914908804FF04F
:100930000F00FFF76FFF0446012C10D089480069B3
:1009400041F6EF7108408749086108E0012C06D0A4
:100950008448006941F6EF710840824908612046E9
:1009600010BD70B505460E4604240F20FFF752FF58
:100970000446042C25D17B48006940F001007949E8
:1009800008612E800F20FFF745FF0446042C0FD18D
:10099000300C68800F20FFF73DFF0446012C10D07B
:1009A0007048006941F6FE7108406E49086108E030
:1009B000012C06D06B48006941F6FE710840694978
:1009C0000861204670BD70B505460E4604240F2010
:1009D000FFF720FF0446042C13D16248006940F061
:1009E0000100604908612E800F20FFF713FF0446C5
:1009F000012C06D05B48006941F6FE710840594958
:100A00000861204670BD70B505460E4604240F20CF
:100A1000FFF700FF0446042C17D153485149886062
:100A2000524888600846006940F0100008612E8036
:100A30000F20FFF7EFFE0446012C06D0494800695D
:100A400041F6EF71084047490861204670BD2DE925
:100A5000F04704464FF6FF763746B046B1460425C8
:100A6000E443E6B2C4F30727C4F307484FEA146926
:100A70000F20FFF7CFFE0546042D3ED13A483949F5
:100A800088603A4888600846006940F010000861B4
:100A9000FF2E06D0374806804FF00F00FFF7BAFE52
:100AA0000546042D08D1FF2F06D0334807804FF0AC
:100AB0000F00FFF7AFFE0546042D09D1B8F1FF0F77
:100AC00006D02E48A0F80C880F20FFF7A3FE05469D
:100AD000042D09D1B9F1FF0F06D02848A0F80E98CF
:100AE0000F20FFF797FE0546012D06D01D4800692F
:100AF00041F6EF7108401B4908612846BDE8F087C0
:100B000070B50546042440F6FF70FFF783FE0446E7
:100B1000042C50D114481349886014488860084652
:100B2000006940F0200008610846006940F040007C
:100B3000086140F6FF70FFF76DFE0446042C31D1CA
:100B40000848006941F6DF71084006490861084617
:100B5000006940F01000086195B100200449088048
:100B600011E000000020024023016745AB89EFCD72
:100B700000F8FF1F08F8FF1F0AF8FF1F00F0FF1F13
:100B8000A5204549088040F6FF70FFF743FE044664
:100B9000012C10D04148006941F6EF7108403F49EF
:100BA000086108E0012C06D03C48006941F6DF717D
:100BB00008403A490861204670BD2DE9F0410746DA
:100BC0000D46164604243648344988603548886006
:100BD0000F20FFF71FFE0446042C1AD12F4800698E
:100BE00040F010002D49086147EA0500304340F00D
:100BF000F8002D4908804FF00F00FFF70BFE044668
:100C0000012C06D02548006941F6EF7108402349C0
:100C100008612046BDE8F0812048C069800870471F
:100C20001E48006A704700201C49C96911F0020F74
:100C300001D0012000E0002070470020174909681A
:100C400011F0200F01D0012000E00020704729B1F1
:100C5000124A12690243114B1A6104E00F4A1269E9
:100C600082430E4B1A61704701460020012908D1CA
:100C70000A4AD26912F0010F01D0012008E00020D9
:100C800006E0064AD2680A4201D0012000E00020B6
:100C900070470249C860704700F8FF1F00200240FB
:100CA00023016745AB89EFCD02F8FF1F0020411EED
:100CB000F84A11606FF07042F749C1F884204FF094
:100CC000FF314FF0E022C2F880126FF07042F3491A
:100CD0000A6000BF04E00022F14941F82020401CD6
:100CE0000F28F8D3704700204FF02061ED4A1160C3
:100CF00001464FF0E022C2F8081DEB49EB4A1160B3
:100D0000014602F10402116002F10402116000BF09
:100D100005E00022E5490C3141F82020401C032861
:100D2000F7D30021E24A11604FF0FF314FF0E0228B
:100D3000C2F8281DDF4A11604FF0E022C2F8301DD2
:100D40007047D9490143D94A11607047F0B5002175
:100D50000022002300250F24C678EEB3D34E366858
:100D600006F4E066C6F5E0664FEA1621C1F1040517
:100D700024FA01F4467806FA05F1867806EA0406B4
:100D800046EA01014FEA011106784FEA86764FEAFA
:100D9000D66601FA06F1C24E07784FEAA70756F861
:100DA000272006784FEA86764FEAD6674FF0FF068F
:100DB00006FA07F322EA030201EA030142EA01020A
:100DC000B74E07784FEAA70746F82720067806F0BF
:100DD0001F074FF0010600E00BE006FA07F6077860
:100DE0004FEA67174FF0E02C0CEB8707C7F800615C
:100DF0000BE0067806F01F070126BE40A54F90F8CD
:100E000000C04FEA6C1C47F82C60F0BD0021017057
:100E100041708170C170704710B5FFF700FA10BDC6
:100E200010B5FFF7FAF910BD10B5FFF7FDF910BDC9
:100E300010B5FFF7FBF910BD10B504462001FFF710
:100E4000FAF910BD10B5FFF7F9F910BD9548006823
:100E5000C0F30930704710B501460020002201F0B0
:100E60001F04012303FA04F28A4B80334C1153F818
:100E700024301340934201D1012000E0002010BD36
:100E80008D490860704700F01F0201219140834A9C
:100E9000121F431142F82310704782480068C0F3C4
:100EA0000900704710B501460020002201F01F0420
:100EB000012303FA04F2794B7C334C1153F82430AC
:100EC0001340934201D1012000E0002010BD7B4877
:100ED000006870477A4A0A4002437A4B1A607047AA
:100EE0007148001D7149086070476F48401C6F4988
:100EF0000860704741B1744A126842EA00024FF03C
:100F0000E023C3F8102D07E06F4A126822EA0002BE
:100F10004FF0E023C3F8102D704710B5002200F009
:100F20001F04012303FA04F241B1614B1B6843EA39
:100F300002034FF0E024C4F8243D07E05C4B1B683B
:100F400023EA02034FF0E024C4F8243D10BDF0B5BD
:100F500003460C4615460020FF2200260021534F71
:100F60003F6807F4E067C7F5E0674FEA1721C1F172
:100F7000040022FA01F204FA00F105EA020747EA46
:100F800001014FEA011103F0C0004FEA9010C3F3D2
:100F900001224FEAC20701FA07F14FEAC20C4FF0F3
:100FA000FF0707FA0CF6494F57F8207027EA0607A3
:100FB000DFF818C14CF82070674657F8207047EAF0
:100FC00001074CF82070F0BD10B502460020002348
:100FD0000021910A01F00F01012404FA01F1344CBF
:100FE000246804EA01038B4201D1012000E00020C3
:100FF00010BD002100F01F012A4A12684FF00103C2
:1010000003FA01F342EA03024FF0E023C3F8042D90
:10101000704710B5002100F01F01224A1268A1F1AB
:1010200001034FF0010404FA03F442EA04024FF012
:10103000E023C3F8042D10BD10B5024600200023A4
:101040000021C2F38331012404FA01F1184C246811
:1010500004EA01038B4201D1012000E0002010BD11
:1010600030B50146002000220023C1F38142C1F3C4
:10107000015312B90F4C206830E0012A2CD1144CD6
:1010800024684FEAC30524FA05F0022B22D000F0B1
:101090000F0023E080E100E000E100E084E200E0F6
:1010A00000E400E004ED00E00000FA050CED00E0D3
:1010B00024ED00E02CED00E000EF00E000ED00E0AA
:1010C00080FFFF1F08ED00E010ED00E018ED00E0EC
:1010D00028ED00E0C0B201E0074C206830BD0146B9
:1010E00000200022C1F3805212B9044B186801E0BD
:1010F000034B18687047000030ED00E034ED00E06D
:1011000038ED00E0DE48006840F00100DC4908608E
:1011100008464068DB490840D949486008460068ED
:10112000D9490840D64908600846006820F4802064
:1011300008600846406820F4FE004860002088608F
:101140007047CF49096821F48031CD4A11601146BA
:10115000096821F480211160B0F5803F03D0B0F51B
:10116000802F0ED106E0C649096841F48031C44A97
:10117000116007E0C249096841F4A021C04A11602A
:1011800000E000BF00BF704710B5014600220023F9
:1011900000204A11012A02D1B94C236806E0022A34
:1011A00002D1B74C236A01E0B54C636A01F01F021B
:1011B000012494401C4201D0012000E0002010BD19
:1011C00010B5002400BF3120FFF7DEFFAF490870E3
:1011D000AF480068401CAE490860AC48007828B9A8
:1011E00008460068A0F58071FF39ECD13120FFF787
:1011F000CBFF08B1012400E00024204610BD0146C9
:1012000000209F4A106820F0F80040EAC1001060FA
:101210007047A0490860704702460020984B586804
:1012200020F47C1042EA01031843954B5860704744
:1012300098490866704701460020914A506820F09E
:1012400003000843506070478D48406800F00C0070
:101250007047014600208A4A506820F0F000084399
:101260005060704701460020854A506820F4E060D5
:1012700008435060704701460020814A506820F4BE
:10128000605040EAC1005060704729B17C4A527AF0
:1012900002437B4B5A7206E0794A527AC343DBB26F
:1012A0001A40774B5A7270477B4908607047014675
:1012B0000020734A506820F4404008435060704753
:1012C0000021764A11706E4A82F82010012802D05F
:1012D000042808D103E00121704A117004E00521BF
:1012E0006E4A117000E000BF00BF70476C49086093
:1012F00070476349096A0143614A1162704769494D
:101300000860704730B500210022002400235C4DA6
:101310006D6805F00C0121B1042905D0082923D1FD
:1013200005E0614D056022E05F4D05601FE0544D12
:101330006D6805F47012022505EB9242504D6D6800
:1013400005F480341CB9594D554305600BE04C4DF4
:101350006D6815F4003F03D0544D5543056002E01D
:10136000514D5543056002E04F4D056000BF00BF81
:10137000434D6D6805F0F00109094D4D6B5C056842
:10138000DD4045603E4D6D6805F4E061090A484D59
:101390006B5C4568DD408560394D6D6805F46051D2
:1013A000C90A434D6B5C4568DD40C560344D6D68CE
:1013B00005F44041890B3F4D6B5CC568B5FBF3F507
:1013C000056130BD29B12E4A526902432C4B5A6146
:1013D00004E02B4A52698243294B5A61704729B174
:1013E000274A92690243264B9A6104E0244A926993
:1013F0008243234B9A61704729B1214AD269024343
:101400001F4BDA6104E01E4AD26982431C4BDA6149
:10141000704729B11A4AD2680243194BDA6004E0D6
:10142000174AD2688243164BDA60704729B1144AD2
:1014300012690243124B1A6104E0114A1269824395
:101440000F4B1A6170471C49086070471149C86406
:1014500070470B49C87170470948406A40F0807076
:1014600007494862704701460020054A92680A42CF
:1014700001D0012000E000207047014988727047C8
:10148000001002400000FFF8FFFFF6FE08000020F9
:101490000400002000004242D800424220100240D6
:1014A000800442423C04424200127A0000093D009E
:1014B000F01B0008001C00084004424210B504461E
:1014C000D949601A8C422BD006DCD848201813D09A
:1014D000B0F5806F38D119E0B0F5806F2AD0B0F543
:1014E0006C4F31D101218803FFF793FF00214FF4A6
:1014F0008040FFF78EFF28E001214804FFF796FFA8
:1015000000214FF40030FFF791FF1EE00121880415
:10151000FFF78CFF00214FF48020FFF787FF14E0D6
:101520000121C804FFF782FF00214FF40020FFF7DC
:101530007DFF0AE001210805FFF778FF00214FF445
:101540008010FFF773FF00E000BF00BF10BD2DE962
:10155000F04786B005460E460024A24600BF00BFF5
:1015600000272F462C8A4CF6FF700440F088044375
:101570002C82AC894EF6F3100440B08831890843C0
:10158000718908430443AC81AC8A4FF6FF400440A4
:10159000B0890443AC8201A8FFF7B4FEA448874297
:1015A00002D1DDF810A001E0DDF80CA00AEBCA00C2
:1015B00000EB0A1031688900B0FBF1F86420B8FB39
:1015C000F0F004012009642101FB1089322000EBB6
:1015D0000910B0FBF1F000F00F0004432C8106B0BD
:1015E000BDE8F0874FF41651016000218180C18071
:1015F00001810C21418100218181704710B5024693
:101600000020108A4FF2FF0318400B884C882343B8
:101610008C882343CC8823431843108210BD0021BB
:10162000018041808180C180704721B1828942F46C
:101630000052828104E082894DF6FF731A40828154
:101640007047F0B503460024002600250020184608
:10165000C1F3421401F01F06012707FA06F5012C19
:1016600001D10C3004E0022C01D1103000E0143024
:101670001AB107682F43076002E00768AF430760AD
:10168000F0BD10B51AB1838A0B43838204E0838ACC
:10169000CC43A4B22340838210BD028A4FF6F0737C
:1016A0001A400282028A0A430282704782894FF2FC
:1016B000FF731A40828182890A438281704721B177
:1016C000828942F00202828104E082894FF6FD7332
:1016D0001A4082817047028A4FF6DF731A400282F5
:1016E000028A0A430282704721B1028A42F4804290
:1016F000028204E0028A4BF6FF731A4002827047AE
:10170000C1F308028280704701468888C0F3080050
:101710007047818941F0010181817047028BD2B20B
:101720000283028B42EA012202837047028B02F499
:101730007F420283028B0A430283704721B1828A6F
:1017400042F02002828204E0828A4FF6DF731A4060
:101750008282704721B1828A42F01002828204E0C4
:10176000828A4FF6EF731A408282704721B1828AD3
:1017700042F00802828204E0828A4FF6F7731A4030
:1017800082827047828A4FF6FB731A408282828A75
:101790000A438282704721B1828A42F00202828229
:1017A00004E0828A4FF6FD731A4082827047024637
:1017B000002013880B4201D0012000E00020704778
:1017C000CA430280704770B502460B4600240021D0
:1017D00000250020C3F3421503F01F01012606FA7D
:1017E00001F1012D02D19689314006E0022D02D18E
:1017F000168A314001E0968A31401C12012606FA11
:1018000004F41688344011B10CB1012000E000202E
:1018100070BD10B5002200230A1201249440A3B227
:10182000DC43048010BD0000004C004000BCFFBF42
:101830000038014010B50446C449601A8C422FD0CC
:1018400009DCC348201810D0B0F5806F16D0B0F571
:10185000006F4AD11BE0B0F5806F2AD0B0F5006F61
:1018600030D0B0F5406F40D135E001210420FFF7C2
:10187000D0FD00210420FFF7CCFD37E00121082036
:10188000FFF7C7FD00210820FFF7C3FD2EE001216F
:101890001020FFF7BEFD00211020FFF7BAFD25E064
:1018A00001212020FFF7B5FD00212020FFF7B1FD29
:1018B0001CE001214020FFF7ACFD00214020FFF794
:1018C000A8FD13E001218020FFF7A3FD0021802067
:1018D000FFF79FFD0AE001210802FFF79AFD0021B2
:1018E0004FF48070FFF795FD00E000BF00BF10BD12
:1018F00010B501210846FFF78CFD00210120FFF7FC
:1019000088FD10BD2DE9F04102460025002600208B
:1019100000230024002791F803C00CF00F0591F874
:1019200003C01CF0100F03D091F802C04CEA05056B
:10193000B1F800C01CF0FF0F30D0146800202AE07E
:101940004FF0010C0CFA00F3B1F800C00CEA0306EA
:101950009E421FD183004FF00F0C0CFA03F7BC43DB
:1019600005FA03FC4CEA040491F803C0BCF1280F0B
:1019700005D14FF0010C0CFA00FCC2F814C091F82C
:1019800003C0BCF1480F05D14FF0010C0CFA00FC6C
:10199000C2F810C0401C0828D2D31460B1F800C0AF
:1019A000BCF1FF0F34DD546800202EE000F1080C7C
:1019B0004FF0010808FA0CF3B1F800C00CEA030676
:1019C0009E4221D183004FF00F0C0CFA03F7BC4369
:1019D00005FA03FC4CEA040491F803C0BCF1280F9B
:1019E00005D100F1080C08FA0CF8C2F8148091F83F
:1019F00003C0BCF1480F07D100F1080C4FF00108FB
:101A000008FA0CF8C2F81080401C0828CED35460A5
:101A1000BDE8F0814FF6FF71018002218170042141
:101A2000C17070470246002093680B4201D001202C
:101A300000E0002070470146886880B27047024687
:101A40000020D3680B4201D0012000E00020704745
:101A50000146C86880B270470161704741617047B4
:101A60000AB1016100E041617047C16070474FF405
:101A700080320A4382618161826182698269704732
:101A800002460020334B18684FF68073184040EA36
:101A9000021008432F4B186070472F49C8617047E8
:101AA000F0B50A460023002400210025294E716864
:101AB000C0F3034583B200F44016B6F5401F08D1C9
:101AC00021F07061234E766826F07066214F7E60AB
:101AD00012E000F48016B6F5801F06D1032606FA40
:101AE00005F4A14341F0706106E0460D360103FAAA
:101AF00006F6B14341F0706122B1460D360103FA9A
:101B000006F63143134E7160F0BD30B500228B07ED
:101B10001C0F0F2303FA04F20E4B08338C1053F8FA
:101B2000243093430B4C08348D1044F82530234661
:101B30008C1053F824308C07240F00FA04F423434C
:101B4000044C08348D1044F8253030BD0014014099
:101B500000F8FEBF0000014000002042FEF738FD03
:101B600000BFFEE7704770477047754600F028F8E1
:101B7000AE4605006946534620F00700854618B07A
:101B800020B5FEF765FBBDE820404FF000064FF0A2
:101B900000074FF000084FF0000B21F00701AC46A2
:101BA000ACE8C009ACE8C009ACE8C009ACE8C009C1
:101BB0008D4670470446AFF300802046FEF701FBD8
:101BC00000487047EC2E002001487047704700BF66
:101BD000F02E002001491820ABBEFEE726000200CF
:101BE000704710B5FFF7F0FF4FF00001016010BD26
:101BF00000000000010203040102030406070809B3
:101C000002040608241C0008000000200C0000004C
:101C10006C010008301C00080C0000204437000054
:101C200088010008C83C000000000000000000001F
:0400000508000131BD
:00000001FF
